{
  "contractName": "BloodBank",
  "abi": [
    {
      "inputs": [],
      "stateMutability": "nonpayable",
      "type": "constructor"
    },
    {
      "anonymous": false,
      "inputs": [
        {
          "indexed": false,
          "internalType": "address",
          "name": "admin",
          "type": "address"
        }
      ],
      "name": "AdminLoggedIn",
      "type": "event"
    },
    {
      "anonymous": false,
      "inputs": [
        {
          "indexed": false,
          "internalType": "address",
          "name": "donor",
          "type": "address"
        },
        {
          "indexed": false,
          "internalType": "enum BloodBank.BloodType",
          "name": "bloodType",
          "type": "uint8"
        },
        {
          "indexed": false,
          "internalType": "uint256",
          "name": "amount",
          "type": "uint256"
        }
      ],
      "name": "BloodDonated",
      "type": "event"
    },
    {
      "anonymous": false,
      "inputs": [
        {
          "indexed": false,
          "internalType": "address",
          "name": "patient",
          "type": "address"
        },
        {
          "indexed": false,
          "internalType": "enum BloodBank.BloodType",
          "name": "bloodType",
          "type": "uint8"
        }
      ],
      "name": "BloodRequested",
      "type": "event"
    },
    {
      "anonymous": false,
      "inputs": [
        {
          "indexed": false,
          "internalType": "address",
          "name": "patient",
          "type": "address"
        },
        {
          "components": [
            {
              "internalType": "bool",
              "name": "isResponded",
              "type": "bool"
            },
            {
              "internalType": "enum BloodBank.BloodType",
              "name": "bloodType",
              "type": "uint8"
            },
            {
              "internalType": "uint256",
              "name": "amount",
              "type": "uint256"
            },
            {
              "internalType": "bool",
              "name": "response",
              "type": "bool"
            }
          ],
          "indexed": false,
          "internalType": "struct BloodBank.Request",
          "name": "request",
          "type": "tuple"
        }
      ],
      "name": "BloodRequested",
      "type": "event"
    },
    {
      "anonymous": false,
      "inputs": [
        {
          "indexed": false,
          "internalType": "address",
          "name": "donor",
          "type": "address"
        }
      ],
      "name": "DonorPermissionGranted",
      "type": "event"
    },
    {
      "anonymous": false,
      "inputs": [
        {
          "indexed": false,
          "internalType": "address",
          "name": "donor",
          "type": "address"
        }
      ],
      "name": "DonorPermissionRevoked",
      "type": "event"
    },
    {
      "anonymous": false,
      "inputs": [
        {
          "indexed": false,
          "internalType": "address",
          "name": "donor",
          "type": "address"
        },
        {
          "indexed": false,
          "internalType": "string",
          "name": "name",
          "type": "string"
        },
        {
          "indexed": false,
          "internalType": "enum BloodBank.BloodType",
          "name": "bloodType",
          "type": "uint8"
        }
      ],
      "name": "DonorRegistered",
      "type": "event"
    },
    {
      "anonymous": false,
      "inputs": [
        {
          "indexed": false,
          "internalType": "address",
          "name": "hospital",
          "type": "address"
        },
        {
          "indexed": false,
          "internalType": "string",
          "name": "name",
          "type": "string"
        },
        {
          "indexed": false,
          "internalType": "address",
          "name": "location",
          "type": "address"
        }
      ],
      "name": "HospitalRegistered",
      "type": "event"
    },
    {
      "anonymous": false,
      "inputs": [
        {
          "indexed": false,
          "internalType": "address",
          "name": "patient",
          "type": "address"
        }
      ],
      "name": "PatientPermissionGranted",
      "type": "event"
    },
    {
      "anonymous": false,
      "inputs": [
        {
          "indexed": false,
          "internalType": "address",
          "name": "patient",
          "type": "address"
        }
      ],
      "name": "PatientPermissionRevoked",
      "type": "event"
    },
    {
      "anonymous": false,
      "inputs": [
        {
          "indexed": false,
          "internalType": "address",
          "name": "patient",
          "type": "address"
        },
        {
          "indexed": false,
          "internalType": "string",
          "name": "name",
          "type": "string"
        },
        {
          "indexed": false,
          "internalType": "enum BloodBank.BloodType",
          "name": "bloodType",
          "type": "uint8"
        }
      ],
      "name": "PatientRegistered",
      "type": "event"
    },
    {
      "anonymous": false,
      "inputs": [
        {
          "indexed": false,
          "internalType": "address",
          "name": "patient",
          "type": "address"
        },
        {
          "indexed": false,
          "internalType": "bool",
          "name": "response",
          "type": "bool"
        },
        {
          "indexed": false,
          "internalType": "enum BloodBank.BloodType",
          "name": "bloodType",
          "type": "uint8"
        },
        {
          "indexed": false,
          "internalType": "uint256",
          "name": "amount",
          "type": "uint256"
        }
      ],
      "name": "RequestResponded",
      "type": "event"
    },
    {
      "inputs": [],
      "name": "admin",
      "outputs": [
        {
          "internalType": "address",
          "name": "",
          "type": "address"
        }
      ],
      "stateMutability": "view",
      "type": "function",
      "constant": true
    },
    {
      "inputs": [
        {
          "internalType": "address",
          "name": "",
          "type": "address"
        }
      ],
      "name": "allowedDonors",
      "outputs": [
        {
          "internalType": "bool",
          "name": "",
          "type": "bool"
        }
      ],
      "stateMutability": "view",
      "type": "function",
      "constant": true
    },
    {
      "inputs": [
        {
          "internalType": "address",
          "name": "",
          "type": "address"
        }
      ],
      "name": "allowedPatients",
      "outputs": [
        {
          "internalType": "bool",
          "name": "",
          "type": "bool"
        }
      ],
      "stateMutability": "view",
      "type": "function",
      "constant": true
    },
    {
      "inputs": [
        {
          "internalType": "enum BloodBank.BloodType",
          "name": "",
          "type": "uint8"
        }
      ],
      "name": "bloodInventory",
      "outputs": [
        {
          "internalType": "uint256",
          "name": "",
          "type": "uint256"
        }
      ],
      "stateMutability": "view",
      "type": "function",
      "constant": true
    },
    {
      "inputs": [
        {
          "internalType": "address",
          "name": "",
          "type": "address"
        }
      ],
      "name": "bloodRequests",
      "outputs": [
        {
          "internalType": "bool",
          "name": "",
          "type": "bool"
        }
      ],
      "stateMutability": "view",
      "type": "function",
      "constant": true
    },
    {
      "inputs": [
        {
          "internalType": "uint256",
          "name": "",
          "type": "uint256"
        }
      ],
      "name": "donorAddresses",
      "outputs": [
        {
          "internalType": "address",
          "name": "",
          "type": "address"
        }
      ],
      "stateMutability": "view",
      "type": "function",
      "constant": true
    },
    {
      "inputs": [
        {
          "internalType": "address",
          "name": "",
          "type": "address"
        },
        {
          "internalType": "enum BloodBank.BloodType",
          "name": "",
          "type": "uint8"
        }
      ],
      "name": "donorBalances",
      "outputs": [
        {
          "internalType": "uint256",
          "name": "",
          "type": "uint256"
        }
      ],
      "stateMutability": "view",
      "type": "function",
      "constant": true
    },
    {
      "inputs": [
        {
          "internalType": "address",
          "name": "",
          "type": "address"
        }
      ],
      "name": "donors",
      "outputs": [
        {
          "internalType": "string",
          "name": "name",
          "type": "string"
        },
        {
          "internalType": "enum BloodBank.BloodType",
          "name": "bloodType",
          "type": "uint8"
        },
        {
          "internalType": "bool",
          "name": "isRegistered",
          "type": "bool"
        }
      ],
      "stateMutability": "view",
      "type": "function",
      "constant": true
    },
    {
      "inputs": [
        {
          "internalType": "address",
          "name": "",
          "type": "address"
        }
      ],
      "name": "hospitals",
      "outputs": [
        {
          "internalType": "string",
          "name": "name",
          "type": "string"
        },
        {
          "internalType": "address",
          "name": "location",
          "type": "address"
        },
        {
          "internalType": "bool",
          "name": "isRegistered",
          "type": "bool"
        }
      ],
      "stateMutability": "view",
      "type": "function",
      "constant": true
    },
    {
      "inputs": [
        {
          "internalType": "uint256",
          "name": "",
          "type": "uint256"
        }
      ],
      "name": "patientAddresses",
      "outputs": [
        {
          "internalType": "address",
          "name": "",
          "type": "address"
        }
      ],
      "stateMutability": "view",
      "type": "function",
      "constant": true
    },
    {
      "inputs": [
        {
          "internalType": "address",
          "name": "",
          "type": "address"
        },
        {
          "internalType": "enum BloodBank.BloodType",
          "name": "",
          "type": "uint8"
        },
        {
          "internalType": "uint256",
          "name": "",
          "type": "uint256"
        }
      ],
      "name": "patientRequests",
      "outputs": [
        {
          "internalType": "bool",
          "name": "isResponded",
          "type": "bool"
        },
        {
          "internalType": "enum BloodBank.BloodType",
          "name": "bloodType",
          "type": "uint8"
        },
        {
          "internalType": "uint256",
          "name": "amount",
          "type": "uint256"
        },
        {
          "internalType": "bool",
          "name": "response",
          "type": "bool"
        }
      ],
      "stateMutability": "view",
      "type": "function",
      "constant": true
    },
    {
      "inputs": [
        {
          "internalType": "address",
          "name": "",
          "type": "address"
        },
        {
          "internalType": "uint256",
          "name": "",
          "type": "uint256"
        }
      ],
      "name": "patientResponses",
      "outputs": [
        {
          "internalType": "bool",
          "name": "isResponded",
          "type": "bool"
        },
        {
          "internalType": "enum BloodBank.BloodType",
          "name": "bloodType",
          "type": "uint8"
        },
        {
          "internalType": "uint256",
          "name": "amount",
          "type": "uint256"
        },
        {
          "internalType": "bool",
          "name": "response",
          "type": "bool"
        }
      ],
      "stateMutability": "view",
      "type": "function",
      "constant": true
    },
    {
      "inputs": [
        {
          "internalType": "address",
          "name": "",
          "type": "address"
        }
      ],
      "name": "patients",
      "outputs": [
        {
          "internalType": "string",
          "name": "name",
          "type": "string"
        },
        {
          "internalType": "enum BloodBank.BloodType",
          "name": "bloodType",
          "type": "uint8"
        },
        {
          "internalType": "bool",
          "name": "isRegistered",
          "type": "bool"
        }
      ],
      "stateMutability": "view",
      "type": "function",
      "constant": true
    },
    {
      "inputs": [],
      "name": "totalBloodDonated",
      "outputs": [
        {
          "internalType": "uint256",
          "name": "",
          "type": "uint256"
        }
      ],
      "stateMutability": "view",
      "type": "function",
      "constant": true
    },
    {
      "inputs": [],
      "name": "totalDonors",
      "outputs": [
        {
          "internalType": "uint256",
          "name": "",
          "type": "uint256"
        }
      ],
      "stateMutability": "view",
      "type": "function",
      "constant": true
    },
    {
      "inputs": [],
      "name": "totalHospitals",
      "outputs": [
        {
          "internalType": "uint256",
          "name": "",
          "type": "uint256"
        }
      ],
      "stateMutability": "view",
      "type": "function",
      "constant": true
    },
    {
      "inputs": [],
      "name": "totalPatients",
      "outputs": [
        {
          "internalType": "uint256",
          "name": "",
          "type": "uint256"
        }
      ],
      "stateMutability": "view",
      "type": "function",
      "constant": true
    },
    {
      "inputs": [],
      "name": "adminLogin",
      "outputs": [
        {
          "internalType": "bool",
          "name": "",
          "type": "bool"
        }
      ],
      "stateMutability": "nonpayable",
      "type": "function"
    },
    {
      "inputs": [
        {
          "internalType": "address",
          "name": "donorAddress",
          "type": "address"
        }
      ],
      "name": "grantDonorPermission",
      "outputs": [],
      "stateMutability": "nonpayable",
      "type": "function"
    },
    {
      "inputs": [
        {
          "internalType": "address",
          "name": "donorAddress",
          "type": "address"
        }
      ],
      "name": "revokeDonorPermission",
      "outputs": [],
      "stateMutability": "nonpayable",
      "type": "function"
    },
    {
      "inputs": [
        {
          "internalType": "address",
          "name": "donorAddress",
          "type": "address"
        }
      ],
      "name": "isDonorAllowed",
      "outputs": [
        {
          "internalType": "bool",
          "name": "",
          "type": "bool"
        }
      ],
      "stateMutability": "view",
      "type": "function",
      "constant": true
    },
    {
      "inputs": [
        {
          "internalType": "address",
          "name": "patientAddress",
          "type": "address"
        }
      ],
      "name": "grantPatientPermission",
      "outputs": [],
      "stateMutability": "nonpayable",
      "type": "function"
    },
    {
      "inputs": [
        {
          "internalType": "address",
          "name": "patientAddress",
          "type": "address"
        }
      ],
      "name": "revokePatientPermission",
      "outputs": [],
      "stateMutability": "nonpayable",
      "type": "function"
    },
    {
      "inputs": [
        {
          "internalType": "address",
          "name": "patientAddress",
          "type": "address"
        }
      ],
      "name": "isPatientAllowed",
      "outputs": [
        {
          "internalType": "bool",
          "name": "",
          "type": "bool"
        }
      ],
      "stateMutability": "view",
      "type": "function",
      "constant": true
    },
    {
      "inputs": [
        {
          "internalType": "address",
          "name": "patientAddress",
          "type": "address"
        },
        {
          "internalType": "string",
          "name": "name",
          "type": "string"
        },
        {
          "internalType": "enum BloodBank.BloodType",
          "name": "bloodType",
          "type": "uint8"
        }
      ],
      "name": "addPatient",
      "outputs": [],
      "stateMutability": "nonpayable",
      "type": "function"
    },
    {
      "inputs": [
        {
          "internalType": "address",
          "name": "hospitalAddress",
          "type": "address"
        },
        {
          "internalType": "string",
          "name": "name",
          "type": "string"
        },
        {
          "internalType": "address",
          "name": "location",
          "type": "address"
        }
      ],
      "name": "addHospital",
      "outputs": [],
      "stateMutability": "nonpayable",
      "type": "function"
    },
    {
      "inputs": [
        {
          "internalType": "string",
          "name": "name",
          "type": "string"
        },
        {
          "internalType": "enum BloodBank.BloodType",
          "name": "bloodType",
          "type": "uint8"
        }
      ],
      "name": "registerAsDonor",
      "outputs": [],
      "stateMutability": "nonpayable",
      "type": "function"
    },
    {
      "inputs": [
        {
          "internalType": "string",
          "name": "name",
          "type": "string"
        },
        {
          "internalType": "enum BloodBank.BloodType",
          "name": "bloodType",
          "type": "uint8"
        }
      ],
      "name": "registerAsPatient",
      "outputs": [],
      "stateMutability": "nonpayable",
      "type": "function"
    },
    {
      "inputs": [
        {
          "internalType": "address",
          "name": "hospitalAddress",
          "type": "address"
        }
      ],
      "name": "locateHospitalToDonate",
      "outputs": [
        {
          "internalType": "string",
          "name": "name",
          "type": "string"
        },
        {
          "internalType": "address",
          "name": "location",
          "type": "address"
        }
      ],
      "stateMutability": "view",
      "type": "function",
      "constant": true
    },
    {
      "inputs": [
        {
          "internalType": "enum BloodBank.BloodType",
          "name": "bloodType",
          "type": "uint8"
        },
        {
          "internalType": "uint256",
          "name": "amount",
          "type": "uint256"
        }
      ],
      "name": "donateBlood",
      "outputs": [],
      "stateMutability": "nonpayable",
      "type": "function"
    },
    {
      "inputs": [],
      "name": "getTotalBloodDonated",
      "outputs": [
        {
          "internalType": "uint256",
          "name": "",
          "type": "uint256"
        }
      ],
      "stateMutability": "view",
      "type": "function",
      "constant": true
    },
    {
      "inputs": [
        {
          "internalType": "enum BloodBank.BloodType",
          "name": "bloodType",
          "type": "uint8"
        }
      ],
      "name": "getBloodInventory",
      "outputs": [
        {
          "internalType": "uint256",
          "name": "",
          "type": "uint256"
        }
      ],
      "stateMutability": "view",
      "type": "function",
      "constant": true
    },
    {
      "inputs": [
        {
          "internalType": "enum BloodBank.BloodType",
          "name": "bloodType",
          "type": "uint8"
        },
        {
          "internalType": "uint256",
          "name": "amount",
          "type": "uint256"
        }
      ],
      "name": "requestBlood",
      "outputs": [],
      "stateMutability": "nonpayable",
      "type": "function"
    },
    {
      "inputs": [
        {
          "internalType": "address",
          "name": "patientAddress",
          "type": "address"
        },
        {
          "internalType": "enum BloodBank.BloodType",
          "name": "bloodType",
          "type": "uint8"
        }
      ],
      "name": "getPatientRequests",
      "outputs": [
        {
          "components": [
            {
              "internalType": "bool",
              "name": "isResponded",
              "type": "bool"
            },
            {
              "internalType": "enum BloodBank.BloodType",
              "name": "bloodType",
              "type": "uint8"
            },
            {
              "internalType": "uint256",
              "name": "amount",
              "type": "uint256"
            },
            {
              "internalType": "bool",
              "name": "response",
              "type": "bool"
            }
          ],
          "internalType": "struct BloodBank.Request[]",
          "name": "",
          "type": "tuple[]"
        }
      ],
      "stateMutability": "view",
      "type": "function",
      "constant": true
    },
    {
      "inputs": [
        {
          "internalType": "address",
          "name": "patientAddress",
          "type": "address"
        },
        {
          "internalType": "enum BloodBank.BloodType",
          "name": "bloodType",
          "type": "uint8"
        },
        {
          "internalType": "bool",
          "name": "response",
          "type": "bool"
        }
      ],
      "name": "respondToRequest",
      "outputs": [],
      "stateMutability": "nonpayable",
      "type": "function"
    },
    {
      "inputs": [
        {
          "internalType": "address",
          "name": "patientAddress",
          "type": "address"
        }
      ],
      "name": "getPatientResponses",
      "outputs": [
        {
          "components": [
            {
              "internalType": "bool",
              "name": "isResponded",
              "type": "bool"
            },
            {
              "internalType": "enum BloodBank.BloodType",
              "name": "bloodType",
              "type": "uint8"
            },
            {
              "internalType": "uint256",
              "name": "amount",
              "type": "uint256"
            },
            {
              "internalType": "bool",
              "name": "response",
              "type": "bool"
            }
          ],
          "internalType": "struct BloodBank.Request[]",
          "name": "",
          "type": "tuple[]"
        }
      ],
      "stateMutability": "view",
      "type": "function",
      "constant": true
    },
    {
      "inputs": [],
      "name": "getRegisteredUsers",
      "outputs": [
        {
          "internalType": "address[]",
          "name": "registeredDonors",
          "type": "address[]"
        },
        {
          "internalType": "address[]",
          "name": "registeredPatients",
          "type": "address[]"
        }
      ],
      "stateMutability": "view",
      "type": "function",
      "constant": true
    }
  ],
  "bytecode": "0x608060405234801561001057600080fd5b50336000806101000a81548173ffffffffffffffffffffffffffffffffffffffff021916908373ffffffffffffffffffffffffffffffffffffffff160217905550613f55806100606000396000f3fe608060405234801561001057600080fd5b50600436106102275760003560e01c806378771fb311610130578063b9de02c0116100b8578063deb5ef091161007c578063deb5ef0914610702578063e7620e7714610720578063f093cf8014610750578063f1744bb114610782578063f851a440146107a057610227565b8063b9de02c01461064a578063ba3e7aae1461067a578063c0bca7df14610696578063ca0cdea8146106b4578063da0b7c10146106e657610227565b80639b0652b4116100ff5780639b0652b4146105825780639b71377f1461059e578063b40f1691146105ce578063b753098b146105fe578063b8a2d4421461061a57610227565b806378771fb3146104fe5780637e4ed03d1461052e578063894b8f0c1461054a578063958b865c1461056657610227565b8063271473d1116101b357806345a7d1c71161018257806345a7d1c7146104335780636d661d53146104635780637073c0721461047f57806375844cd11461049e57806376cd7083146104ce57610227565b8063271473d11461036d5780632b2aee5d1461039d5780632bac19a2146103cd578063440bfe561461040057610227565b80631927b768116101fa5780631927b768146102c65780631e9e2290146102e457806325c302e414610300578063265c30c91461031e57806326838ae31461033c57610227565b806303a14b421461022c578063063da53a146102485780630869cfbc146102645780630a1c8e6814610296575b600080fd5b61024660048036038101906102419190612e88565b6107be565b005b610262600480360381019061025d9190612e88565b6108dc565b005b61027e60048036038101906102799190612e88565b6109fb565b60405161028d9392919061396d565b60405180910390f35b6102b060048036038101906102ab9190612e88565b610ac7565b6040516102bd919061389f565b60405180910390f35b6102ce610b1d565b6040516102db9190613b2b565b60405180910390f35b6102fe60048036038101906102f99190612eed565b610b23565b005b610308611054565b6040516103159190613b2b565b60405180910390f35b61032661105a565b6040516103339190613b2b565b60405180910390f35b61035660048036038101906103519190612e88565b611060565b6040516103649291906138ff565b60405180910390f35b61038760048036038101906103829190612e88565b61122d565b604051610394919061387d565b60405180910390f35b6103b760048036038101906103b2919061314e565b611392565b6040516103c4919061370a565b60405180910390f35b6103e760048036038101906103e29190612f3c565b6113d1565b6040516103f794939291906138ba565b60405180910390f35b61041a60048036038101906104159190613059565b611452565b60405161042a94939291906138ba565b60405180910390f35b61044d60048036038101906104489190612e88565b6114c6565b60405161045a919061389f565b60405180910390f35b61047d600480360381019061047891906130be565b61151c565b005b610487611773565b604051610495929190613846565b60405180910390f35b6104b860048036038101906104b39190613095565b611892565b6040516104c59190613b2b565b60405180910390f35b6104e860048036038101906104e39190612e88565b6118aa565b6040516104f5919061389f565b60405180910390f35b61051860048036038101906105139190612eb1565b6118ca565b6040516105259190613b2b565b60405180910390f35b61054860048036038101906105439190612e88565b6118ef565b005b610564600480360381019061055f91906130be565b611a0d565b005b610580600480360381019061057b9190612e88565b611ccd565b005b61059c600480360381019061059791906130fa565b611dec565b005b6105b860048036038101906105b39190612eb1565b611fd1565b6040516105c5919061387d565b60405180910390f35b6105e860048036038101906105e3919061314e565b6122a4565b6040516105f5919061370a565b60405180910390f35b610618600480360381019061061391906130fa565b6122e3565b005b610634600480360381019061062f9190613095565b6124c8565b6040516106419190613b2b565b60405180910390f35b610664600480360381019061065f9190612e88565b612555565b604051610671919061389f565b60405180910390f35b610694600480360381019061068f9190612f8b565b612575565b005b61069e6127e5565b6040516106ab919061389f565b60405180910390f35b6106ce60048036038101906106c99190612e88565b612825565b6040516106dd9392919061396d565b60405180910390f35b61070060048036038101906106fb9190612ff2565b6128f1565b005b61070a612b92565b6040516107179190613b2b565b60405180910390f35b61073a60048036038101906107359190612e88565b612b98565b604051610747919061389f565b60405180910390f35b61076a60048036038101906107659190612e88565b612bb8565b6040516107799392919061392f565b60405180910390f35b61078a612c97565b6040516107979190613b2b565b60405180910390f35b6107a8612ca1565b6040516107b5919061370a565b60405180910390f35b600a60008273ffffffffffffffffffffffffffffffffffffffff1673ffffffffffffffffffffffffffffffffffffffff16815260200190815260200160002060009054906101000a900460ff1661084a576040517f08c379a000000000000000000000000000000000000000000000000000000000815260040161084190613acb565b60405180910390fd5b6000600a60008373ffffffffffffffffffffffffffffffffffffffff1673ffffffffffffffffffffffffffffffffffffffff16815260200190815260200160002060006101000a81548160ff0219169083151502179055507f0d75f4177f5c2ba083d1f9ed47e125806407c82e261facc56bfed13d3295f085816040516108d1919061370a565b60405180910390a150565b600a60008273ffffffffffffffffffffffffffffffffffffffff1673ffffffffffffffffffffffffffffffffffffffff16815260200190815260200160002060009054906101000a900460ff1615610969576040517f08c379a0000000000000000000000000000000000000000000000000000000008152600401610960906139eb565b60405180910390fd5b6001600a60008373ffffffffffffffffffffffffffffffffffffffff1673ffffffffffffffffffffffffffffffffffffffff16815260200190815260200160002060006101000a81548160ff0219169083151502179055507f6470588e45881bf48bc4406748c2c44819598eae7041fca47408b90f441242c6816040516109f0919061370a565b60405180910390a150565b6008602052806000526040600020600091509050806000018054610a1e90613d6e565b80601f0160208091040260200160405190810160405280929190818152602001828054610a4a90613d6e565b8015610a975780601f10610a6c57610100808354040283529160200191610a97565b820191906000526020600020905b815481529060010190602001808311610a7a57829003601f168201915b5050505050908060010160009054906101000a900460ff16908060010160019054906101000a900460ff16905083565b6000600a60008373ffffffffffffffffffffffffffffffffffffffff1673ffffffffffffffffffffffffffffffffffffffff16815260200190815260200160002060009054906101000a900460ff169050919050565b60045481565b600860008473ffffffffffffffffffffffffffffffffffffffff1673ffffffffffffffffffffffffffffffffffffffff16815260200190815260200160002060010160019054906101000a900460ff16610bb2576040517f08c379a0000000000000000000000000000000000000000000000000000000008152600401610ba990613a6b565b60405180910390fd5b6000600f60008573ffffffffffffffffffffffffffffffffffffffff1673ffffffffffffffffffffffffffffffffffffffff1681526020019081526020016000206000846003811115610c2e577f4e487b7100000000000000000000000000000000000000000000000000000000600052602160045260246000fd5b6003811115610c66577f4e487b7100000000000000000000000000000000000000000000000000000000600052602160045260246000fd5b81526020019081526020016000208054905011610cb8576040517f08c379a0000000000000000000000000000000000000000000000000000000008152600401610caf906139ab565b60405180910390fd5b6000600f60008573ffffffffffffffffffffffffffffffffffffffff1673ffffffffffffffffffffffffffffffffffffffff1681526020019081526020016000206000846003811115610d34577f4e487b7100000000000000000000000000000000000000000000000000000000600052602160045260246000fd5b6003811115610d6c577f4e487b7100000000000000000000000000000000000000000000000000000000600052602160045260246000fd5b81526020019081526020016000206001600f60008773ffffffffffffffffffffffffffffffffffffffff1673ffffffffffffffffffffffffffffffffffffffff1681526020019081526020016000206000866003811115610df6577f4e487b7100000000000000000000000000000000000000000000000000000000600052602160045260246000fd5b6003811115610e2e577f4e487b7100000000000000000000000000000000000000000000000000000000600052602160045260246000fd5b815260200190815260200160002080549050610e4a9190613c8b565b81548110610e81577f4e487b7100000000000000000000000000000000000000000000000000000000600052603260045260246000fd5b9060005260206000209060030201905060018160000160006101000a81548160ff021916908315150217905550818160020160006101000a81548160ff021916908315150217905550601060008573ffffffffffffffffffffffffffffffffffffffff1673ffffffffffffffffffffffffffffffffffffffff1681526020019081526020016000208190806001815401808255809150506001900390600052602060002090600302016000909190919091506000820160009054906101000a900460ff168160000160006101000a81548160ff0219169083151502179055506000820160019054906101000a900460ff168160000160016101000a81548160ff02191690836003811115610fbe577f4e487b7100000000000000000000000000000000000000000000000000000000600052602160045260246000fd5b0217905550600182015481600101556002820160009054906101000a900460ff168160020160006101000a81548160ff02191690831515021790555050507f0cb0eecdc646f95300ff59a3649e7f113854102f55590a186a114bdea39a68d884838360000160019054906101000a900460ff1684600101546040516110469493929190613725565b60405180910390a150505050565b60015481565b60035481565b60606000600960008473ffffffffffffffffffffffffffffffffffffffff1673ffffffffffffffffffffffffffffffffffffffff16815260200190815260200160002060010160149054906101000a900460ff166110f3576040517f08c379a00000000000000000000000000000000000000000000000000000000081526004016110ea90613a8b565b60405180910390fd5b600960008473ffffffffffffffffffffffffffffffffffffffff1673ffffffffffffffffffffffffffffffffffffffff168152602001908152602001600020600001600960008573ffffffffffffffffffffffffffffffffffffffff1673ffffffffffffffffffffffffffffffffffffffff16815260200190815260200160002060010160009054906101000a900473ffffffffffffffffffffffffffffffffffffffff168180546111a490613d6e565b80601f01602080910402602001604051908101604052809291908181526020018280546111d090613d6e565b801561121d5780601f106111f25761010080835404028352916020019161121d565b820191906000526020600020905b81548152906001019060200180831161120057829003601f168201915b5050505050915091509150915091565b6060601060008373ffffffffffffffffffffffffffffffffffffffff1673ffffffffffffffffffffffffffffffffffffffff168152602001908152602001600020805480602002602001604051908101604052809291908181526020016000905b8282101561138757838290600052602060002090600302016040518060800160405290816000820160009054906101000a900460ff161515151581526020016000820160019054906101000a900460ff166003811115611317577f4e487b7100000000000000000000000000000000000000000000000000000000600052602160045260246000fd5b600381111561134f577f4e487b7100000000000000000000000000000000000000000000000000000000600052602160045260246000fd5b8152602001600182015481526020016002820160009054906101000a900460ff1615151515815250508152602001906001019061128e565b505050509050919050565b600581815481106113a257600080fd5b906000526020600020016000915054906101000a900473ffffffffffffffffffffffffffffffffffffffff1681565b600f60205282600052604060002060205281600052604060002081815481106113f957600080fd5b906000526020600020906003020160009250925050508060000160009054906101000a900460ff16908060000160019054906101000a900460ff16908060010154908060020160009054906101000a900460ff16905084565b6010602052816000526040600020818154811061146e57600080fd5b9060005260206000209060030201600091509150508060000160009054906101000a900460ff16908060000160019054906101000a900460ff16908060010154908060020160009054906101000a900460ff16905084565b6000600b60008373ffffffffffffffffffffffffffffffffffffffff1673ffffffffffffffffffffffffffffffffffffffff16815260200190815260200160002060009054906101000a900460ff169050919050565b600760003373ffffffffffffffffffffffffffffffffffffffff1673ffffffffffffffffffffffffffffffffffffffff16815260200190815260200160002060010160019054906101000a900460ff166115ab576040517f08c379a00000000000000000000000000000000000000000000000000000000081526004016115a290613a0b565b60405180910390fd5b600e60003373ffffffffffffffffffffffffffffffffffffffff1673ffffffffffffffffffffffffffffffffffffffff1681526020019081526020016000206000836003811115611625577f4e487b7100000000000000000000000000000000000000000000000000000000600052602160045260246000fd5b600381111561165d577f4e487b7100000000000000000000000000000000000000000000000000000000600052602160045260246000fd5b8152602001908152602001600020600081548092919061167c90613da0565b919050555080600d60008460038111156116bf577f4e487b7100000000000000000000000000000000000000000000000000000000600052602160045260246000fd5b60038111156116f7577f4e487b7100000000000000000000000000000000000000000000000000000000600052602160045260246000fd5b815260200190815260200160002060008282546117149190613c35565b92505081905550806004600082825461172d9190613c35565b925050819055507fc2f0fc24f51c0d69bcb224db3f20a529782afccd9cf749ccf983ae933ed08b813383836040516117679392919061376a565b60405180910390a15050565b60608060056006818054806020026020016040519081016040528092919081815260200182805480156117fb57602002820191906000526020600020905b8160009054906101000a900473ffffffffffffffffffffffffffffffffffffffff1673ffffffffffffffffffffffffffffffffffffffff16815260200190600101908083116117b1575b505050505091508080548060200260200160405190810160405280929190818152602001828054801561188357602002820191906000526020600020905b8160009054906101000a900473ffffffffffffffffffffffffffffffffffffffff1673ffffffffffffffffffffffffffffffffffffffff1681526020019060010190808311611839575b50505050509050915091509091565b600d6020528060005260406000206000915090505481565b600a6020528060005260406000206000915054906101000a900460ff1681565b600e602052816000526040600020602052806000526040600020600091509150505481565b600b60008273ffffffffffffffffffffffffffffffffffffffff1673ffffffffffffffffffffffffffffffffffffffff16815260200190815260200160002060009054906101000a900460ff1661197b576040517f08c379a000000000000000000000000000000000000000000000000000000000815260040161197290613aab565b60405180910390fd5b6000600b60008373ffffffffffffffffffffffffffffffffffffffff1673ffffffffffffffffffffffffffffffffffffffff16815260200190815260200160002060006101000a81548160ff0219169083151502179055507f50b4f48c2b29bd3719894342dd2c27e3890b43d1fd5353022887ba15c8a8cf3e81604051611a02919061370a565b60405180910390a150565b600860003373ffffffffffffffffffffffffffffffffffffffff1673ffffffffffffffffffffffffffffffffffffffff16815260200190815260200160002060010160019054906101000a900460ff16611a9c576040517f08c379a0000000000000000000000000000000000000000000000000000000008152600401611a9390613a4b565b60405180910390fd5b60006040518060800160405280600015158152602001846003811115611aeb577f4e487b7100000000000000000000000000000000000000000000000000000000600052602160045260246000fd5b8152602001838152602001600015158152509050600f60003373ffffffffffffffffffffffffffffffffffffffff1673ffffffffffffffffffffffffffffffffffffffff168152602001908152602001600020600082602001516003811115611b7d577f4e487b7100000000000000000000000000000000000000000000000000000000600052602160045260246000fd5b6003811115611bb5577f4e487b7100000000000000000000000000000000000000000000000000000000600052602160045260246000fd5b815260200190815260200160002081908060018154018082558091505060019003906000526020600020906003020160009091909190915060008201518160000160006101000a81548160ff02191690831515021790555060208201518160000160016101000a81548160ff02191690836003811115611c5e577f4e487b7100000000000000000000000000000000000000000000000000000000600052602160045260246000fd5b02179055506040820151816001015560608201518160020160006101000a81548160ff02191690831515021790555050507fe0fd22686cb831b16f1f01cedcbd518d72c259a8bd2bca74f4ffe066159b783f3382604051611cc092919061381d565b60405180910390a1505050565b600b60008273ffffffffffffffffffffffffffffffffffffffff1673ffffffffffffffffffffffffffffffffffffffff16815260200190815260200160002060009054906101000a900460ff1615611d5a576040517f08c379a0000000000000000000000000000000000000000000000000000000008152600401611d5190613aeb565b60405180910390fd5b6001600b60008373ffffffffffffffffffffffffffffffffffffffff1673ffffffffffffffffffffffffffffffffffffffff16815260200190815260200160002060006101000a81548160ff0219169083151502179055507f173926a5cd76513113da8c73e33cd759abb380c3fa117a8e50bbe24fd69e71b181604051611de1919061370a565b60405180910390a150565b6040518060600160405280838152602001826003811115611e36577f4e487b7100000000000000000000000000000000000000000000000000000000600052602160045260246000fd5b815260200160011515815250600760003373ffffffffffffffffffffffffffffffffffffffff1673ffffffffffffffffffffffffffffffffffffffff1681526020019081526020016000206000820151816000019080519060200190611e9d929190612cc5565b5060208201518160010160006101000a81548160ff02191690836003811115611eef577f4e487b7100000000000000000000000000000000000000000000000000000000600052602160045260246000fd5b021790555060408201518160010160016101000a81548160ff0219169083151502179055509050506005339080600181540180825580915050600190039060005260206000200160009091909190916101000a81548173ffffffffffffffffffffffffffffffffffffffff021916908373ffffffffffffffffffffffffffffffffffffffff16021790555060016000815480929190611f8d90613da0565b91905055507f779163cb568883acd4f53ecd8b9b240d9167817266c43fa521301a32e8fd290b338383604051611fc5939291906137df565b60405180910390a15050565b60606000600f60008573ffffffffffffffffffffffffffffffffffffffff1673ffffffffffffffffffffffffffffffffffffffff168152602001908152602001600020600084600381111561204f577f4e487b7100000000000000000000000000000000000000000000000000000000600052602160045260246000fd5b6003811115612087577f4e487b7100000000000000000000000000000000000000000000000000000000600052602160045260246000fd5b815260200190815260200160002090506000818054905067ffffffffffffffff8111156120dd577f4e487b7100000000000000000000000000000000000000000000000000000000600052604160045260246000fd5b60405190808252806020026020018201604052801561211657816020015b612103612d4b565b8152602001906001900390816120fb5790505b50905060005b828054905081101561229857828181548110612161577f4e487b7100000000000000000000000000000000000000000000000000000000600052603260045260246000fd5b90600052602060002090600302016040518060800160405290816000820160009054906101000a900460ff161515151581526020016000820160019054906101000a900460ff1660038111156121e0577f4e487b7100000000000000000000000000000000000000000000000000000000600052602160045260246000fd5b6003811115612218577f4e487b7100000000000000000000000000000000000000000000000000000000600052602160045260246000fd5b8152602001600182015481526020016002820160009054906101000a900460ff16151515158152505082828151811061227a577f4e487b7100000000000000000000000000000000000000000000000000000000600052603260045260246000fd5b6020026020010181905250808061229090613da0565b91505061211c565b50809250505092915050565b600681815481106122b457600080fd5b906000526020600020016000915054906101000a900473ffffffffffffffffffffffffffffffffffffffff1681565b604051806060016040528083815260200182600381111561232d577f4e487b7100000000000000000000000000000000000000000000000000000000600052602160045260246000fd5b815260200160011515815250600860003373ffffffffffffffffffffffffffffffffffffffff1673ffffffffffffffffffffffffffffffffffffffff1681526020019081526020016000206000820151816000019080519060200190612394929190612cc5565b5060208201518160010160006101000a81548160ff021916908360038111156123e6577f4e487b7100000000000000000000000000000000000000000000000000000000600052602160045260246000fd5b021790555060408201518160010160016101000a81548160ff0219169083151502179055509050506006339080600181540180825580915050600190039060005260206000200160009091909190916101000a81548173ffffffffffffffffffffffffffffffffffffffff021916908373ffffffffffffffffffffffffffffffffffffffff1602179055506002600081548092919061248490613da0565b91905055507fd0279fc6af44cae89320e43efb9a695b3185662c6ada09288e9d440caa4543a63383836040516124bc939291906137df565b60405180910390a15050565b6000600d6000836003811115612507577f4e487b7100000000000000000000000000000000000000000000000000000000600052602160045260246000fd5b600381111561253f577f4e487b7100000000000000000000000000000000000000000000000000000000600052602160045260246000fd5b8152602001908152602001600020549050919050565b600b6020528060005260406000206000915054906101000a900460ff1681565b60008054906101000a900473ffffffffffffffffffffffffffffffffffffffff1673ffffffffffffffffffffffffffffffffffffffff163373ffffffffffffffffffffffffffffffffffffffff1614612603576040517f08c379a00000000000000000000000000000000000000000000000000000000081526004016125fa906139cb565b60405180910390fd5b600960008473ffffffffffffffffffffffffffffffffffffffff1673ffffffffffffffffffffffffffffffffffffffff16815260200190815260200160002060010160149054906101000a900460ff1615612693576040517f08c379a000000000000000000000000000000000000000000000000000000000815260040161268a90613b0b565b60405180910390fd5b60405180606001604052808381526020018273ffffffffffffffffffffffffffffffffffffffff16815260200160011515815250600960008573ffffffffffffffffffffffffffffffffffffffff1673ffffffffffffffffffffffffffffffffffffffff1681526020019081526020016000206000820151816000019080519060200190612722929190612cc5565b5060208201518160010160006101000a81548173ffffffffffffffffffffffffffffffffffffffff021916908373ffffffffffffffffffffffffffffffffffffffff16021790555060408201518160010160146101000a81548160ff021916908315150217905550905050600360008154809291906127a090613da0565b91905055507fa2c0805b2d96cb9d515bef0880a6f601672ee7dd7b3f3b29e86c9b552e4661c88383836040516127d8939291906137a1565b60405180910390a1505050565b60007fb59f440754e07ccf4f8158d21ab17643d0854c21b74aaffee912ad01931b228333604051612816919061370a565b60405180910390a16001905090565b600760205280600052604060002060009150905080600001805461284890613d6e565b80601f016020809104026020016040519081016040528092919081815260200182805461287490613d6e565b80156128c15780601f10612896576101008083540402835291602001916128c1565b820191906000526020600020905b8154815290600101906020018083116128a457829003601f168201915b5050505050908060010160009054906101000a900460ff16908060010160019054906101000a900460ff16905083565b60008054906101000a900473ffffffffffffffffffffffffffffffffffffffff1673ffffffffffffffffffffffffffffffffffffffff163373ffffffffffffffffffffffffffffffffffffffff161461297f576040517f08c379a0000000000000000000000000000000000000000000000000000000008152600401612976906139cb565b60405180910390fd5b600860008473ffffffffffffffffffffffffffffffffffffffff1673ffffffffffffffffffffffffffffffffffffffff16815260200190815260200160002060010160019054906101000a900460ff1615612a0f576040517f08c379a0000000000000000000000000000000000000000000000000000000008152600401612a0690613a2b565b60405180910390fd5b6040518060600160405280838152602001826003811115612a59577f4e487b7100000000000000000000000000000000000000000000000000000000600052602160045260246000fd5b815260200160011515815250600860008573ffffffffffffffffffffffffffffffffffffffff1673ffffffffffffffffffffffffffffffffffffffff1681526020019081526020016000206000820151816000019080519060200190612ac0929190612cc5565b5060208201518160010160006101000a81548160ff02191690836003811115612b12577f4e487b7100000000000000000000000000000000000000000000000000000000600052602160045260246000fd5b021790555060408201518160010160016101000a81548160ff02191690831515021790555090505060026000815480929190612b4d90613da0565b91905055507fd0279fc6af44cae89320e43efb9a695b3185662c6ada09288e9d440caa4543a6838383604051612b85939291906137df565b60405180910390a1505050565b60025481565b600c6020528060005260406000206000915054906101000a900460ff1681565b6009602052806000526040600020600091509050806000018054612bdb90613d6e565b80601f0160208091040260200160405190810160405280929190818152602001828054612c0790613d6e565b8015612c545780601f10612c2957610100808354040283529160200191612c54565b820191906000526020600020905b815481529060010190602001808311612c3757829003601f168201915b5050505050908060010160009054906101000a900473ffffffffffffffffffffffffffffffffffffffff16908060010160149054906101000a900460ff16905083565b6000600454905090565b60008054906101000a900473ffffffffffffffffffffffffffffffffffffffff1681565b828054612cd190613d6e565b90600052602060002090601f016020900481019282612cf35760008555612d3a565b82601f10612d0c57805160ff1916838001178555612d3a565b82800160010185558215612d3a579182015b82811115612d39578251825591602001919060010190612d1e565b5b509050612d479190612daf565b5090565b604051806080016040528060001515815260200160006003811115612d99577f4e487b7100000000000000000000000000000000000000000000000000000000600052602160045260246000fd5b8152602001600081526020016000151581525090565b5b80821115612dc8576000816000905550600101612db0565b5090565b6000612ddf612dda84613b77565b613b46565b905082815260208101848484011115612df757600080fd5b612e02848285613d2c565b509392505050565b600081359050612e1981613eca565b92915050565b600081359050612e2e81613ee1565b92915050565b600081359050612e4381613ef8565b92915050565b600082601f830112612e5a57600080fd5b8135612e6a848260208601612dcc565b91505092915050565b600081359050612e8281613f08565b92915050565b600060208284031215612e9a57600080fd5b6000612ea884828501612e0a565b91505092915050565b60008060408385031215612ec457600080fd5b6000612ed285828601612e0a565b9250506020612ee385828601612e34565b9150509250929050565b600080600060608486031215612f0257600080fd5b6000612f1086828701612e0a565b9350506020612f2186828701612e34565b9250506040612f3286828701612e1f565b9150509250925092565b600080600060608486031215612f5157600080fd5b6000612f5f86828701612e0a565b9350506020612f7086828701612e34565b9250506040612f8186828701612e73565b9150509250925092565b600080600060608486031215612fa057600080fd5b6000612fae86828701612e0a565b935050602084013567ffffffffffffffff811115612fcb57600080fd5b612fd786828701612e49565b9250506040612fe886828701612e0a565b9150509250925092565b60008060006060848603121561300757600080fd5b600061301586828701612e0a565b935050602084013567ffffffffffffffff81111561303257600080fd5b61303e86828701612e49565b925050604061304f86828701612e34565b9150509250925092565b6000806040838503121561306c57600080fd5b600061307a85828601612e0a565b925050602061308b85828601612e73565b9150509250929050565b6000602082840312156130a757600080fd5b60006130b584828501612e34565b91505092915050565b600080604083850312156130d157600080fd5b60006130df85828601612e34565b92505060206130f085828601612e73565b9150509250929050565b6000806040838503121561310d57600080fd5b600083013567ffffffffffffffff81111561312757600080fd5b61313385828601612e49565b925050602061314485828601612e34565b9150509250929050565b60006020828403121561316057600080fd5b600061316e84828501612e73565b91505092915050565b600061318383836131a7565b60208301905092915050565b600061319b8383613642565b60808301905092915050565b6131b081613cbf565b82525050565b6131bf81613cbf565b82525050565b60006131d082613bc7565b6131da8185613c02565b93506131e583613ba7565b8060005b838110156132165781516131fd8882613177565b975061320883613be8565b9250506001810190506131e9565b5085935050505092915050565b600061322e82613bd2565b6132388185613c13565b935061324383613bb7565b8060005b8381101561327457815161325b888261318f565b975061326683613bf5565b925050600181019050613247565b5085935050505092915050565b61328a81613cd1565b82525050565b61329981613cd1565b82525050565b6132a881613d1a565b82525050565b6132b781613d1a565b82525050565b60006132c882613bdd565b6132d28185613c24565b93506132e2818560208601613d3b565b6132eb81613ea5565b840191505092915050565b6000613303601f83613c24565b91507f4e6f20626c6f6f6420646f6e6174696f6e207265717565737420666f756e64006000830152602082019050919050565b6000613343602683613c24565b91507f4f6e6c79207468652061646d696e2063616e20706572666f726d20746869732060008301527f616374696f6e00000000000000000000000000000000000000000000000000006020830152604082019050919050565b60006133a9601c83613c24565b91507f446f6e6f7220616c726561647920686173207065726d697373696f6e000000006000830152602082019050919050565b60006133e9601483613c24565b91507f446f6e6f72206e6f7420726567697374657265640000000000000000000000006000830152602082019050919050565b6000613429601a83613c24565b91507f50617469656e7420616c726561647920726567697374657265640000000000006000830152602082019050919050565b6000613469602783613c24565b91507f596f75206e65656420746f20726567697374657220617320612070617469656e60008301527f74206669727374000000000000000000000000000000000000000000000000006020830152604082019050919050565b60006134cf601683613c24565b91507f50617469656e74206e6f742072656769737465726564000000000000000000006000830152602082019050919050565b600061350f601783613c24565b91507f486f73706974616c206e6f7420726567697374657265640000000000000000006000830152602082019050919050565b600061354f602083613c24565b91507f50617469656e7420646f6573206e6f742068617665207065726d697373696f6e6000830152602082019050919050565b600061358f601e83613c24565b91507f446f6e6f7220646f6573206e6f742068617665207065726d697373696f6e00006000830152602082019050919050565b60006135cf601e83613c24565b91507f50617469656e7420616c726561647920686173207065726d697373696f6e00006000830152602082019050919050565b600061360f601b83613c24565b91507f486f73706974616c20616c7265616479207265676973746572656400000000006000830152602082019050919050565b6080820160008201516136586000850182613281565b50602082015161366b602085018261329f565b50604082015161367e60408501826136ec565b5060608201516136916060850182613281565b50505050565b6080820160008201516136ad6000850182613281565b5060208201516136c0602085018261329f565b5060408201516136d360408501826136ec565b5060608201516136e66060850182613281565b50505050565b6136f581613d10565b82525050565b61370481613d10565b82525050565b600060208201905061371f60008301846131b6565b92915050565b600060808201905061373a60008301876131b6565b6137476020830186613290565b61375460408301856132ae565b61376160608301846136fb565b95945050505050565b600060608201905061377f60008301866131b6565b61378c60208301856132ae565b61379960408301846136fb565b949350505050565b60006060820190506137b660008301866131b6565b81810360208301526137c881856132bd565b90506137d760408301846131b6565b949350505050565b60006060820190506137f460008301866131b6565b818103602083015261380681856132bd565b905061381560408301846132ae565b949350505050565b600060a08201905061383260008301856131b6565b61383f6020830184613697565b9392505050565b6000604082019050818103600083015261386081856131c5565b9050818103602083015261387481846131c5565b90509392505050565b600060208201905081810360008301526138978184613223565b905092915050565b60006020820190506138b46000830184613290565b92915050565b60006080820190506138cf6000830187613290565b6138dc60208301866132ae565b6138e960408301856136fb565b6138f66060830184613290565b95945050505050565b6000604082019050818103600083015261391981856132bd565b905061392860208301846131b6565b9392505050565b6000606082019050818103600083015261394981866132bd565b905061395860208301856131b6565b6139656040830184613290565b949350505050565b6000606082019050818103600083015261398781866132bd565b905061399660208301856132ae565b6139a36040830184613290565b949350505050565b600060208201905081810360008301526139c4816132f6565b9050919050565b600060208201905081810360008301526139e481613336565b9050919050565b60006020820190508181036000830152613a048161339c565b9050919050565b60006020820190508181036000830152613a24816133dc565b9050919050565b60006020820190508181036000830152613a448161341c565b9050919050565b60006020820190508181036000830152613a648161345c565b9050919050565b60006020820190508181036000830152613a84816134c2565b9050919050565b60006020820190508181036000830152613aa481613502565b9050919050565b60006020820190508181036000830152613ac481613542565b9050919050565b60006020820190508181036000830152613ae481613582565b9050919050565b60006020820190508181036000830152613b04816135c2565b9050919050565b60006020820190508181036000830152613b2481613602565b9050919050565b6000602082019050613b4060008301846136fb565b92915050565b6000604051905081810181811067ffffffffffffffff82111715613b6d57613b6c613e76565b5b8060405250919050565b600067ffffffffffffffff821115613b9257613b91613e76565b5b601f19601f8301169050602081019050919050565b6000819050602082019050919050565b6000819050602082019050919050565b600081519050919050565b600081519050919050565b600081519050919050565b6000602082019050919050565b6000602082019050919050565b600082825260208201905092915050565b600082825260208201905092915050565b600082825260208201905092915050565b6000613c4082613d10565b9150613c4b83613d10565b9250827fffffffffffffffffffffffffffffffffffffffffffffffffffffffffffffffff03821115613c8057613c7f613de9565b5b828201905092915050565b6000613c9682613d10565b9150613ca183613d10565b925082821015613cb457613cb3613de9565b5b828203905092915050565b6000613cca82613cf0565b9050919050565b60008115159050919050565b6000819050613ceb82613eb6565b919050565b600073ffffffffffffffffffffffffffffffffffffffff82169050919050565b6000819050919050565b6000613d2582613cdd565b9050919050565b82818337600083830152505050565b60005b83811015613d59578082015181840152602081019050613d3e565b83811115613d68576000848401525b50505050565b60006002820490506001821680613d8657607f821691505b60208210811415613d9a57613d99613e47565b5b50919050565b6000613dab82613d10565b91507fffffffffffffffffffffffffffffffffffffffffffffffffffffffffffffffff821415613dde57613ddd613de9565b5b600182019050919050565b7f4e487b7100000000000000000000000000000000000000000000000000000000600052601160045260246000fd5b7f4e487b7100000000000000000000000000000000000000000000000000000000600052602160045260246000fd5b7f4e487b7100000000000000000000000000000000000000000000000000000000600052602260045260246000fd5b7f4e487b7100000000000000000000000000000000000000000000000000000000600052604160045260246000fd5b6000601f19601f8301169050919050565b60048110613ec757613ec6613e18565b5b50565b613ed381613cbf565b8114613ede57600080fd5b50565b613eea81613cd1565b8114613ef557600080fd5b50565b60048110613f0557600080fd5b50565b613f1181613d10565b8114613f1c57600080fd5b5056fea264697066735822122084c775062e4a64dacecd6c136f49b27a5522e3f98ec0845b1de40958c009706264736f6c63430008000033",
  "immutableReferences": {},
  "source": "// SPDX-License-Identifier: MIT\npragma solidity ^0.8.0;\n\ncontract BloodBank {\n    address public admin;\n    uint public totalDonors;\n    uint public totalPatients;\n    uint public totalHospitals;\n    uint public totalBloodDonated;\n\n    address[] public donorAddresses;\n    address[] public patientAddresses;\n\n    enum BloodType { A, B, AB, O }\n\n    struct Donor {\n        string name;\n        BloodType bloodType;\n        bool isRegistered;\n    }\n\n    struct Patient {\n        string name;\n        BloodType bloodType;\n        bool isRegistered;\n    }\n\n    struct Hospital {\n        string name;\n        address location;\n        bool isRegistered;\n    }\n\n    struct Request {\n    bool isResponded;\n    BloodType bloodType;\n    uint amount;\n    bool response;\n   }\n\n   \n    mapping(address => Donor) public donors;\n    mapping(address => Patient) public patients;\n    mapping(address => Hospital) public hospitals;\n    mapping(address => bool) public allowedDonors;\n    mapping(address => bool) public allowedPatients;\n    mapping(address => bool) public bloodRequests;\n    mapping(BloodType => uint) public bloodInventory;\n    mapping(address => mapping(BloodType => uint)) public donorBalances;\n    mapping(address => mapping(BloodType => Request[])) public patientRequests;\n    mapping(address => Request[]) public patientResponses; // Add mapping to store responses\n\n    event AdminLoggedIn(address admin);\n    event DonorRegistered(address donor, string name, BloodType bloodType);\n    event PatientRegistered(address patient, string name, BloodType bloodType);\n    event HospitalRegistered(address hospital, string name, address location);\n    event BloodDonated(address donor, BloodType bloodType, uint amount);\n    event BloodRequested(address patient, BloodType bloodType);\n    event DonorPermissionGranted(address donor);\n    event DonorPermissionRevoked(address donor);\n    event PatientPermissionGranted(address patient);\n    event PatientPermissionRevoked(address patient);\n    event RequestResponded(address patient, bool response, BloodType bloodType, uint amount);\n    event BloodRequested(address patient, Request request);\n\n    modifier isAdmin() {\n        require(msg.sender == admin, \"Only the admin can perform this action\");\n        _;\n    }\n    modifier onlyAdminOrPatient() {\n        require(msg.sender == admin || allowedPatients[msg.sender], \"Permission denied\");\n        _;\n    }\n\n    constructor() {\n        admin = msg.sender;\n    }\n\n    function adminLogin() public returns (bool) {\n        emit AdminLoggedIn(msg.sender);\n        return true;\n    }\n\n    function grantDonorPermission(address donorAddress) public {\n        require(!allowedDonors[donorAddress], \"Donor already has permission\");\n        allowedDonors[donorAddress] = true;\n        emit DonorPermissionGranted(donorAddress);\n    }\n\n    function revokeDonorPermission(address donorAddress) public {\n        require(allowedDonors[donorAddress], \"Donor does not have permission\");\n        allowedDonors[donorAddress] = false;\n        emit DonorPermissionRevoked(donorAddress);\n    }\n\n    function isDonorAllowed(address donorAddress) public view returns (bool) {\n        return allowedDonors[donorAddress];\n    }\n\n    function grantPatientPermission(address patientAddress) public {\n        require(!allowedPatients[patientAddress], \"Patient already has permission\");\n        allowedPatients[patientAddress] = true;\n        emit PatientPermissionGranted(patientAddress);\n    }\n\n    function revokePatientPermission(address patientAddress) public {\n        require(allowedPatients[patientAddress], \"Patient does not have permission\");\n        allowedPatients[patientAddress] = false;\n        emit PatientPermissionRevoked(patientAddress);\n    }\n\n    function isPatientAllowed(address patientAddress) public view returns (bool) {\n        return allowedPatients[patientAddress];\n    }\n\n    function addPatient(address patientAddress, string memory name, BloodType bloodType) public isAdmin {\n        require(!patients[patientAddress].isRegistered, \"Patient already registered\");\n        patients[patientAddress] = Patient(name, bloodType, true);\n        totalPatients++;\n        emit PatientRegistered(patientAddress, name, bloodType);\n    }\n\n    function addHospital(address hospitalAddress, string memory name, address location) public isAdmin {\n        require(!hospitals[hospitalAddress].isRegistered, \"Hospital already registered\");\n        hospitals[hospitalAddress] = Hospital(name, location, true);\n        totalHospitals++;\n        emit HospitalRegistered(hospitalAddress, name, location);\n    }\n\n    function registerAsDonor(string memory name, BloodType bloodType) public {\n        donors[msg.sender] = Donor(name, bloodType, true);\n        donorAddresses.push(msg.sender);\n        totalDonors++;\n        emit DonorRegistered(msg.sender, name, bloodType);\n    }\n\n    function registerAsPatient(string memory name, BloodType bloodType) public {\n        patients[msg.sender] = Patient(name, bloodType, true);\n        patientAddresses.push(msg.sender);\n        totalPatients++;\n        emit PatientRegistered(msg.sender, name, bloodType);\n    }\n\n    function locateHospitalToDonate(address hospitalAddress) public view returns (string memory name, address location) {\n        require(hospitals[hospitalAddress].isRegistered, \"Hospital not registered\");\n        return (hospitals[hospitalAddress].name, hospitals[hospitalAddress].location);\n    }\n    \n    function donateBlood(BloodType bloodType, uint amount) public {\n    require(donors[msg.sender].isRegistered, \"Donor not registered\");       \n    // Assuming a simplified storage for blood donation amounts\n    donorBalances[msg.sender][bloodType]++;\n    // Update the blood inventory for the specified blood type\n    bloodInventory[bloodType] += amount;\n    totalBloodDonated += amount;  // Increment the total blood donated\n    emit BloodDonated(msg.sender, bloodType, amount);\n    }\n\n    // Function to get the total amount of blood donated\n    function getTotalBloodDonated() public view returns (uint) {\n        return totalBloodDonated;\n    }\n\n    // Function to get the blood inventory for a specific blood type\n    function getBloodInventory(BloodType bloodType) public view returns (uint) {\n        return bloodInventory[bloodType];\n    }\n\nfunction requestBlood(BloodType bloodType, uint amount) public {\n    require(patients[msg.sender].isRegistered, \"You need to register as a patient first\");\n    // Create a new request object\n    Request memory newRequest = Request({\n        isResponded: false,\n        bloodType: bloodType,\n        amount: amount,\n        response: false\n    });\n    // Add the request to the patient's requests\n    patientRequests[msg.sender][newRequest.bloodType].push(newRequest);\n    // Emit blood request event with the entire request object\n    emit BloodRequested(msg.sender, newRequest);\n}\n\nfunction getPatientRequests(address patientAddress, BloodType bloodType) public view returns (Request[] memory) {\n    Request[] storage requests = patientRequests[patientAddress][bloodType];\n    Request[] memory result = new Request[](requests.length);\n    for (uint i = 0; i < requests.length; i++) {\n        result[i] = requests[i];\n    }\n    return result;\n}\n\n function respondToRequest(address patientAddress, BloodType bloodType, bool response) public {\n    require(patients[patientAddress].isRegistered, \"Patient not registered\");\n    require(patientRequests[patientAddress][bloodType].length > 0, \"No blood donation request found\");\n\n    // Get the last request made by the patient\n    Request storage lastRequest = patientRequests[patientAddress][bloodType][patientRequests[patientAddress][bloodType].length - 1];\n\n    // Update the response for the last request\n    lastRequest.isResponded = true;\n    lastRequest.response = response;\n\n    // Store the response\n    patientResponses[patientAddress].push(lastRequest);\n\n    // Emit event for responding to blood donation request\n    emit RequestResponded(patientAddress, response, lastRequest.bloodType, lastRequest.amount);\n}\n\n    // Add a function to retrieve patient responses\n    function getPatientResponses(address patientAddress) public view returns (Request[] memory) {\n        return patientResponses[patientAddress];\n    }\n        function getRegisteredUsers() public view returns (address[] memory registeredDonors, address[] memory registeredPatients) {\n        return (donorAddresses, patientAddresses);\n    }\n}\n\n",
  "sourcePath": "/Users/sahithivijayamgera/Downloads/Blood-Bank-BlockChain-master/contracts/BloodBank.sol",
  "compiler": {
    "name": "solc",
    "version": "0.8.0+commit.c7dfd78e.Emscripten.clang"
  },
  "schemaVersion": "3.4.16",
  "updatedAt": "2024-11-18T06:33:56.484Z",
  "networkType": "ethereum",
  "devdoc": {
    "kind": "dev",
    "methods": {},
    "version": 1
  },
  "userdoc": {
    "kind": "user",
    "methods": {},
    "version": 1
  }
}